:020000004C2A88
:10000800FF00030E83018316C5000A08C4008A0195
:1000180070088312A2007C08A1007D08A0000408D3
:10002800A3008316E3010F227008031D1C2817285C
:1000380083164C08CD00162270088316CC0063087E
:10004800CE3E840070088000E30A4C084E3A031D37
:1000580032284D084F3A031D322844284C08463AA6
:10006800031D3B284D08463A031D3B284428803091
:10007800053AF000803063067002031C44284528C6
:100088004628172883128C123430FC00F130FD000A
:10009800FD0B4C28FC0B4C28000000006E08831652
:1000A800E2000A308312EE0053308316E400CE30AB
:1000B800E5000430E600212200307106031D6628A1
:1000C80000307006031D6C2801308312EB00D42821
:1000D8004D308316E400CE30E5000530E6002122DD
:1000E80000307106031D7A2800307006031D802831
:1000F80002308312EB00D42848308316E400CE3057
:10010800E5000430E600212200307106031D8E2828
:1001180000307006031D942803308312EB00D428A6
:1001280065308316E400CE30E5000530E600212274
:1001380000307106031DA22800307006031DA82890
:1001480004308312EB00D4285E308316E400CE30EE
:10015800E5000630E600212200307106031DB628AE
:1001680000307006031DBC2805308312EB00D4282C
:1001780058308316E400CE30E5000530E600212231
:1001880000307106031DCA2800307006031DD028F0
:1001980006308312EB00D428831662088312EE001F
:1001A8002208F0002108FC002008FD002308840034
:1001B800831644088A00450E8300FF0E7F0E09004F
:0E01C800213083120313FD00FD0BE828080010
:1001D6000F3083120313FC004730FD00FD0BF1289E
:0A01E600FC0BF128000000000800E7
:0601F00000000000080001
:1001F60083160313CB1B0229831286130429831249
:10020600861783164B1B0A29831206130C298312A1
:1002160006178316CB1A1229831286121429831203
:10022600861683164B1A1A29831206121C29831264
:1002360006166F1820290615212906118615F8209D
:1002460086118316CB192A29831286132C29831229
:10025600861783164B193229831206133429831203
:1002660006178316CB183A29831286123C29831265
:10027600861683164B1842298312061244298312C6
:1002860006166F1848290615492906118615F820FD
:0E02960086116F1C5029EB205129E42008002E
:0E02A400831203136D088A006C0882000800A4
:1002B200831203136F1083164A08CB00FB206F14BE
:0202C200080032
:1002C40083160313981690308312980083168717A9
:1002D400071383128C1E71291A08F0006B29080079
:1002E4008429803083160313C6009729C030C600C2
:1002F40097299430C6009729D430C60097298030B6
:10030400C6009729831603134608013A0319732973
:100314004608023A031978294608033A03197B2947
:100324004608043A03197E2981294703F000460848
:10033400F0077008C6007008CB00FB206F1083160E
:10034400C90149084807840000080319B22949086B
:10035400480784000008CA0059218316C90AA32942
:0603640083126F14080073
:10036A0052218A110A128000840AEC0A0319ED0A42
:08037A00F003031DB529080082
:1003820083160313861106110612861206138613AC
:100392008312861106118613061386120612EB20AB
:1003A200EB20EB20861606168615F8208611EB2028
:1003B2008615F8208611EB208615F8208611EB2091
:1003C20006128615F8208611EB208615F820861174
:1003D200861286178615F8208611EB2086130616DC
:1003E2008615F820861106128615F8208611EB2054
:1003F2008615F820861106168615F8208611EB2040
:1004020006128615F8208611861706178616061616
:0C0412008615F8208611EB206F140800FE
:0E041E000030831203138C1A0130F000080026
:10042C00831203131A08F100981C1E2A18121816AE
:06043C007108F000080049
:10044200831603136608F000E60370080319492AAD
:10045200640884000008003A03193A2A65088400F7
:100462000008F1006408840000087106031D3A2A9E
:10047200462A640884000008F00065088400000829
:10048200F002F101031CF1034B2AE40AE50A212AD6
:06049200F001F101080079
:10049800AE23831603138801831288010130831663
:1004A800850083128501C0308B0083168C160730B7
:1004B8009C0007309F00C12101308316CB00FB2030
:1004C8000C308316CB00FB203330831699001815A7
:1004D80062210B30FB002630FC005D30FD00FD0B77
:1004E800732AFC0B732AFB0B732A000000000130EF
:1004F8008316C6000230C7002430C8007221051CCC
:10050800A52A881501308316CB00FB2001308316FD
:10051800C6000130C7003430C80072211530FB0016
:100528004B30FC00BE30FD00FD0B982AFC0B982ACE
:10053800FB0B982A0000881101308316CB00FB20A2
:100548007B2A6B08003A0319832A6B08023A031DB9
:10055800CD2A881401308316CB00FB200130831686
:10056800C6000130C7003E30C80072211F30FB00B2
:100578007130FC001E30FD00FD0BC02AFC0BC02AA8
:10058800FB0BC02A000001308316CB00FB20EB01D7
:100598007B2A6B08033A031DF22A08150814013058
:1005A8008316CB00FB2001308316C6000130C7003C
:1005B800A030C80072211F30FB007130FC001E30D3
:1005C800FD00FD0BE52AFC0BE52AFB0BE52A0000E4
:1005D80001308316CB00FB20EB017B2A6B08053A20
:1005E800031D162B881001308316CB00FB20013029
:1005F8008316C6000130C700B930C80072211F3009
:10060800FB007130FC001E30FD00FD0B092BFC0BBC
:10061800092BFB0B092B000001308316CB00FB20B4
:10062800EB017B2A6B08063A031D3B2B08110810C7
:1006380001308316CB00FB2001308316C600013041
:10064800C700AC30C80072211F30FB007130FC00BD
:100658001E30FD00FD0B2E2BFC0B2E2BFB0B2E2B27
:10066800000001308316CB00FB20EB017B2AEB0155
:040678007B2A3D2B71
:10075C0024308400473083120313F0004330EC0044
:10076C000330ED00B521A030840024308312F0005A
:0C077C008A30EC000330ED00B5210800CD
:1006860048344F344D344534203441345534543491
:100696004F344D344134543449344F344E3400349D
:1006A60049346E3474347234753464346534723457
:0406B60021340034B7
:1006BA0054344134413420344934533420344F348F
:0406CA004E34003476
:0A06CE00543446344F344E340034E7
:0C06D8005434413441344F344E3400346B
:0A06E400463441344F344E340034E4
:0C06EE00543446344F3446344634003453
:0E06FA005434413441344F34463446340034D5
:0C070800463441344F344634463400344B
:1007140054345634203426342034463441344E3450
:0807240020344F344E34003440
:10072C0054345634203426342034463441344E3438
:0A073C0020344F34463446340034B4
:1007460054344134413420344934533420344F3402
:0607560046344634003475
:02400E004A2F37
:00000001FF
